:020000040800F2
:100000004809002005010008B31D0008BD1B0008B9
:10001000B11D0008D10100084524000800000000BF
:10002000000000000000000000000000151F000894
:100030001702000800000000B51D0008171F000887
:100040001F0100081F0100081F010008351E0008DD
:100050001F0100081F0100081F0100081F01000800
:100060001F0100081F0100081F0100081F010008F0
:100070001F010008D50100081F010008E101000868
:100080001F0100081F0100081F0100081F010008D0
:100090001F0100081F0100081F0100081F010008C0
:1000A0001F0100081F0100081F0100081F010008B0
:1000B0001F0100081F0100081F0100081F010008A0
:1000C0001F0100081F0100081F0100081F01000890
:1000D0001F010008892300081F010008DD23000814
:1000E0001F0100081F0100081F010008DFF810D0E1
:1000F00000F05CF800480047F5260008AFF30080E8
:10010000480900200648804706480047FEE7FEE70A
:10011000FEE7FEE7FEE7FEE7FEE7FEE7FEE7FEE7B7
:100120009B1F0008ED000008D2B201E000F8012B8F
:10013000491EFBD270470022F6E710B513460A4667
:1001400004461946FFF7F0FF204610BD30B50546BE
:100150002A460B4612F8010B13F8014B08B1A042D6
:10016000F8D01CB1002802D06D1CF1E7284630BD44
:10017000421C10F8011B0029FBD1801A704730B5D2
:100180000B46014600202022012409E021FA02F555
:100190009D4205D303FA02F5491B04FA02F52844EF
:1001A000151EA2F10102F1DC30BD0000064C074D26
:1001B00006E0E06840F0010394E807009847103437
:1001C000AC42F6D3FFF796FF3C2800085C280008F5
:1001D000FEE70000014800F0F9BA00000405002025
:1001E000014800F0F3BA0000C004002030B590F8D8
:1001F00040500124AC40C56B6C6004686360436888
:10020000102B036803D099600068C26030BD9A600B
:100210000068C16030BD704770B50C4D00244FF4CC
:100220007A760BA1284602F003F9304602F031FA43
:10023000642208A108A000F013F8002804D0641C70
:10024000E4B2032CEDD3012070BD00000048004053
:100250002B2B2B004F4B000041540D0A00000000D7
:100260002DE9F74F0026264C90464FF007093746F8
:100270004FF6FF7B35464FF4007A00BF84F80052FA
:10028000A4F802520098FFF773FF82B25B461D4844
:10029000009901F045FC1FE0012002F0FAF9761CFC
:1002A00094F80002F6B2012816D184F80052A4F89E
:1002B000025213480199FFF749FF48B112A002F01A
:1002C000C3F851460E48FFF736FF0020BDE8FE8F09
:1002D00051460B48FFF72FFF4645DDD17F1CFFB28B
:1002E0004F45CBD30DA002F0AFF884F80052A4F82C
:1002F000025251460248FFF71EFF0120E6E70000C8
:100300002C020020780400205B4F4B5D2052656377
:10031000656976652041636B210A00005B45525296
:100320004F525D210A0000002DE9F04104469AB0C9
:100330001D46164688464DA002F086F8FFF76CFF72
:1003400000280FD14FF4967002F0A3F952A002F0EA
:100350007BF84FF47A773A465AA15CA0FFF780FF0A
:1003600018B102201AB0BDE8F0815BA002F06CF871
:100370004FF4FA7002F08DF958A002F065F8C82227
:1003800061A162A0FFF76CFF08B10320EAE752A069
:1003900002F05AF861A002F057F8434622466AA1DB
:1003A000684602F061F841F2883257A16846FFF7CB
:1003B00057FF08B10420D5E747A002F045F869A02F
:1003C00002F042F8C82250A171A0FFF749FF08B11E
:1003D0000520C7E740A002F037F871A002F034F81A
:1003E0002B46324679A1684602F03EF83A4646A1CD
:1003F0006846FFF735FF08B10620B3E736A002F0E4
:1004000023F879A002F020F864223FA181A0FFF731
:1004100027FF08B10720A5E72FA002F015F881A05B
:1004200002F012F8C8228AA18AA0FFF719FF08B1CA
:10043000082097E728A002F007F88AA002F004F845
:10044000214693A002F000F8414696A001F0FCFF7F
:1004500031469AA001F0F8FF29469DA001F0F4FF73
:1004600080A001F0F1FF00207CE70000302E4578ED
:100470006974696E67207468652053657269614E9E
:100480006574206D6F64652E2E2E2E2E2E2E2E2E30
:100490002E2E2E2E00000000312E446576696365F5
:1004A00020726573746172742E2E2E2E2E2E2E2EB7
:1004B0002E2E2E2E2E2E2E2E2E2E2E2E2E2E2E2E5C
:1004C00000000000726561647900000041542B5205
:1004D00053540D0A000000000A000000322E53653C
:1004E00074696E6720746F20535441206D6F64658A
:1004F0002E2E2E2E2E2E2E2E2E2E2E2E2E2E2E2E1C
:100500002E2E2E2E000000004F4B000041542B4396
:10051000574D4F44453D310D0A000000332E436FC7
:100520006E6E656374696E6720574946492E2E2E9C
:100530002E2E2E2E2E2E2E2E2E2E2E2E2E2E2E2EDB
:100540002E2E2E2E0000000041542B43574A4150BE
:100550005F4355523D222573222C222573220D0A1A
:1005600000000000342E5475726E206F6E20746887
:10057000652073696E676C6520636F6E6E6563746A
:10058000696F6E732E2E2E2E2E2E2E2E0000000042
:1005900041542B4349504D55583D300D0A00000041
:1005A000352E436F6E6E656374696E67207468657F
:1005B000207365727665722E2E2E2E2E2E2E2E2EE6
:1005C0002E2E2E2E2E2E2E2E0000000041542B43B8
:1005D000495053544152543D22544350222C222519
:1005E00073222C25640D0A00362E456E61626C65FF
:1005F000207468652053657269614E6574206D6F63
:1006000064652E2E2E2E2E2E2E2E2E2E2E2E2E2E9D
:100610000000000041542B4349504D4F44453D31AB
:100620000D0A0000372E53656E64696E67206461A1
:100630007461206F6E207468652053657269614E25
:100640006574206D6F64652E2E2E2E2E2E000000F8
:100650003E00000041542B43495053454E440D0A7F
:100660000000000009092D2D2D2D2D2D2D2D2D2DB6
:100670002D2D2D2D2D2D2D2D2D2D2D2D2D2D2D2DAA
:100680002D2D2D2D2D2D2D2D2D2D2D2D2D2D0A00EA
:10069000090957494649204E616D6520093A2025D0
:1006A000730A00000909574946492050617373775E
:1006B0006F726420093A2025730A00000909536506
:1006C0007276657220495020093A2025730A00008D
:1006D000090953657276657220506F727420093A69
:1006E0002025640A0000000072B6FEE710B590F8FD
:1006F00021100022022905D00421816380F82020E6
:10070000012010BD01680B6823F00E030B60016827
:100710000B6823F001030B6090F84030C46B01219B
:1007200001FA03F3636080F8211080F8202010465E
:1007300010BD000010B590F821100024022903D04C
:100740000421816301243DE001680A6822F00E0261
:100750000A6001680A6822F001020A601A4A016808
:10076000914201D1012121E0174A1432914201D175
:1007700010211BE0144A2832914201D1891515E05D
:10078000114A3C32914201D189140FE00E4A503295
:10079000914202D14FF4803108E00B4A6432914219
:1007A00002D14FF4801101E04FF08071064A083AFF
:1007B0005160012180F82110002180F82010416B48
:1007C00001B18847204610BD080002402DE9F05FC6
:1007D000C16B0C6801680B68D0F840C0042202FAB3
:1007E0000CF2494DDFF824A1494E4A4FDFF828B1F9
:1007F000DFF828E122422CD05A072AD50A6892064F
:1008000003D40A6822F004020A600168A94201D1F7
:10081000042219E0514501D1402215E0B14202D134
:100820004FF4806210E0B94202D14FF480420BE0F5
:10083000594502D14FF4802206E0714502D14FF4B0
:10084000800201E04FF080622F4908394A60C16A96
:100850003BE04FF0020808FA0CF818EA040F4FF0DA
:1008600000094FF0010235D05FEA837832D50B687A
:100870009B0605D40B6823F00A030B6080F8212047
:100880000168A94201D1022219E0514501D120227B
:1008900015E0B14202D14FF4007210E0B94202D12A
:1008A0004FF400520BE0594502D14FF4003206E0FC
:1008B000714502D14FF4001201E04FF0007212496D
:1008C00008394A6080F82090816A00291AD0BDE872
:1008D000F05F0847082505FA0CF5254212D01B07E2
:1008E00010D50B6823F00E030B6090F84010C36B1B
:1008F00002FA01F15960826380F8212080F820908B
:10090000016BE2E7BDE8F09F080002401C000240D6
:100910003000024044000240580002406C00024097
:1009200030B528B308C8134914221944B1FBF2F1B9
:100930008900C16310498163022141771A6843F637
:10094000F0718A43D0E900142143D0E902452C43D9
:1009500021430469214344692143846921431143AC
:10096000196000214163012242770177084630BDBA
:10097000012030BDF8FFFDBF0000024070B5044605
:1009800090F82000002501280CD0012084F82000D8
:1009900094F821600020012E06D084F82000022562
:1009A000284670BD022070BD022684F82160A06335
:1009B0002068066826F0010606602046FFF716FC50
:1009C000E06A00282068016802D041F00E0106E0CC
:1009D00021F0040101602068016841F00A01016012
:1009E0002068016841F001010160D9E72DE9F84F65
:1009F000DFF8B8910024A9F1040B23460F2709F171
:100A0000040AABF1040EC9E00125A5402A40AA4220
:100A10007DD1674ED1F804C0ACEB0608B44532D0A6
:100A200014DCBCF1030F3AD009DCBCF1000F2AD072
:100A3000BCF1010F1CD0BCF1020F31D11DE0BCF1A3
:100A4000110F17D0BCF1120F2AD119E0B8F5881F89
:100A500019D006DCB8F5803F15D0B8F5801F1FD13E
:100A600011E0B8F5001F0ED0B8F5041F18D10AE048
:100A7000CB6815E0CB681B1D12E0CB6808330FE094
:100A8000CB680C330CE08B682BB1012B4FF00803C3
:100A900003D0456104E0042302E0056100E0002387
:100AA000FF2A01D8064601E000F104064FEA84055A
:100AB00001D9A5F12005D6F8008007FA05FC28EA3F
:100AC0000C0803FA05F548EA0508C6F800804D68E9
:100AD000ED0062D5374DAE6946F00106AE61AD69F5
:100AE00024F0030605F001050095334D06EB050CD7
:100AF000DCF80850A607360F07FA06F825EA0805BD
:100B0000DFF8B880404503D14FF0000817E044E01B
:100B1000DFF8AC80404502D14FF001080FE0DFF86C
:100B2000A480404502D14FF0020808E0DFF8988029
:100B3000404502D14FF0030801E04FF0040808FAE5
:100B400006F848EA0508CCF808804D68D9F8006036
:100B5000ED024D4601D5164300E096432E604D68E8
:100B6000DAF80060AD02554601D5164300E0964321
:100B70002E604D68DBF80060AD035D4601D516437D
:100B800000E096432E604D68DEF80060ED03754688
:100B900001D5164300E096432E60641C0D682A467A
:100BA000E5407FF431AFBDE8F88F00000804014054
:100BB0000000111000100240000001400008014038
:100BC000000C014000100140001401400AB1016115
:100BD00070470904FBE70000014880687047000087
:100BE000000000200248816802781144816070474B
:100BF00000000020074810B5016841F010010160B5
:100C0000032000F075F80F2000F006F800F024F83B
:100C1000002010BD0020024070B50D4D04464FF479
:100C20007A712878B1FBF0F00A490968B1FBF0F05D
:100C300000F00FFD48B9102C07D200222146501EAB
:100C400000F036F800206C6070BD012070BD00001F
:100C5000000000200C0000200C4808B5816941F01C
:100C600001018161816901F001010091C16941F0D7
:100C70008051C161C06900F0805000900448416813
:100C800021F0E06141F00071416008BD00100240B8
:100C900000000140002809DB00F01F020121914003
:100CA0004009800000F1E020C0F80011704700000A
:100CB000F0B40E4B1B680C46C3F30223C3F10705C7
:100CC000042D00D90425191D072901D2002300E0B5
:100CD000DB1E012606FA05F1491E214099409E407F
:100CE000761E16403143F0BC01F0D2BB0CED00E0A3
:100CF000064900F0070208684FF6FF03184040EA73
:100D00000220034A10430860704700000CED00E029
:100D10000000FA05014901200862704700000E42F8
:100D200010B501460020234C012922D0022939D0D8
:100D300010291DD161682268D20119D51E48C1F35E
:100D40008342C903805C0AD561681B4AC1F34041F4
:100D5000921E515C194AB2FBF1F1484301E0184977
:100D600048436168490203D440000321B0FBF1F01D
:100D700010BD226AC2F30121012903D1920701D5D6
:100D8000C80310BD022905D1626A920702D549F64F
:100D9000404010BD0329FCD121688903F9D54FF2E9
:100DA000244010BD00F02AF96168C1F38131491C6B
:100DB0004900DBE7001002401428000800127A0006
:100DC00000093D002DE9F84305460078354CC00781
:100DD00054D0E0690026C00008D4E06940F080509B
:100DE000E061E069012600F0805000902E48016823
:100DF000C90512D40168804641F480710160FFF793
:100E0000EBFE074605E000BFFFF7E6FEC01B6428C7
:100E100023D8D8F80000C005F6D5206A10F4407039
:100E200021D0A98801F4407181421CD0206A1F4959
:100E3000012220F440700A6000220A602062C0078C
:100E400011D0FFF7C9FE074641F2883808E000BF1D
:100E5000FFF7C2FEC11B414502D90320BDE8F8835C
:100E6000206A8007F4D5206A696820F4407008433E
:100E700020621EB1E06920F08050E0612878800790
:100E800005D56068A96820F4404008436060287870
:100E9000C00605D56068E96820F4800008436060FA
:100EA0000020DBE700100240007000404004424296
:100EB0002DE9F0470F46050061D0434E306800F041
:100EC0000700B84209D2306820F00700384330608C
:100ED000306800F00700B84251D128683B4C8107C8
:100EE00012D5400703D5606840F4E0606060287860
:100EF000000703D5606840F4605060606068A968CE
:100F000020F0F000084360602878C00728D06868A7
:100F1000012810D02168022810D0890700292EDA74
:100F2000616821F0030101436160FFF755FE8046CF
:100F300041F288390DE021688903EFE78901EDE787
:100F4000FFF74AFEA0EB0801494502D90320BDE89E
:100F5000F0876068696800F00C00B0EB810FEFD19A
:100F6000306800F00700B8420BD9306820F0070065
:100F700038433060306800F00700B84201D00120EB
:100F8000E5E72878400705D56068E96820F4E06067
:100F9000084360602878000706D56068296920F456
:100FA000605040EAC100606000F038F86168084AAB
:100FB000C1F30311515CC840064908600648006847
:100FC000FFF72AFE0020C2E7002002400010024086
:100FD000242800080C0000200400002004480549D3
:100FE00000684968044AC1F30221515CC840704757
:100FF0000C00002000100240342800080448054975
:1010000000684968044AC1F3C221515CC840704776
:101010000C00002000100240342800080E4A5168DD
:101020000E4801F00C03042B11D0082B0FD10C48F3
:10103000C1F38343C903C05C0AD55168084AC1F3B0
:101040004041921E515C054A5043B0FBF1F070479D
:1010500004494843704700000010024000127A0023
:101060000228000800093D002DE9F84F040070D067
:101070002078C04DC00749D06868C0F381000128BE
:1010800007D06868C0F38100022809D16868C003EE
:1010900006D52868800339D560680028E7D035E098
:1010A0006068B0F5803F0BD010B1B0F5A02F11D023
:1010B000286820F480302860286820F4802002E02E
:1010C000286840F480302860606890B1FFF784FDA4
:1010D00006460AE0286840F480202860F0E700BF58
:1010E000FFF77AFD801B642873D828688003F7D542
:1010F0000CE0FFF771FD064605E000BFFFF76CFD51
:10110000801B6428F0D828688003F7D420789A4E92
:1011100080074FF001094FF0000839D5686810F0DA
:101120000C0F07D06868C0F38100022809D16868F5
:10113000C00306D42868800714D52069012808D187
:1011400010E02069B0B1C6F80090FFF745FD0746F2
:1011500005E00AE1FFF740FDC01B0228C4D828685B
:101160008007F7D52868616920F0F80040EAC100DF
:1011700028600DE0C6F80080FFF72EFD074604E06A
:10118000FFF72AFDC01B022823D828688007F7D460
:10119000207800072CD57948A169D9B1C0F8009012
:1011A000FFF71AFD074604E0FFF716FDC01B0228F3
:1011B0000FD8686A8007F7D571484FF4FA51006874
:1011C000B0FBF1F0009000BF0098411E0091FAD2F0
:1011D0000EE080E0C0F80080FFF7FEFC074604E068
:1011E000FFF7FAFCC01B022875D8686A8007F7D49D
:1011F0002078400760D5E8690027C00008D4E86976
:1012000040F08050E861E869012700F080500090CC
:101210005C480168C90513D40168834641F48071B4
:101220000160FFF7D9FC824606E000BFFFF7D4FC5F
:10123000A0EB0A0064284ED8DBF80000C005F5D505
:10124000E06801280AD008B1052813D0286A20F0E8
:1012500001002862286A20F0040002E0286A40F0B9
:1012600001002862E06841F2883B98B1FFF7B4FCC6
:1012700082460BE0286A40F004002862EEE700BFD7
:10128000FFF7AAFCA0EB0A0159455AD8286A800743
:10129000F6D50CE0FFF7A0FC824605E0FFF79CFCCA
:1012A000A0EB0A0159454CD8286A8007F6D41FB133
:1012B000E86920F08050E861E06988B36968C1F3AB
:1012C0008101022944D00228C6F8608004D0FFF7CB
:1012D00083FC044638E034E0FFF77EFC074604E078
:1012E000FFF77AFCC01B02282BD828688001F7D4AE
:1012F000206AB0F5803F05D16868A16820F400300D
:1013000008436860D4E908010843696821F474114E
:1013100008436860C6F86090FFF75EFC044606E08C
:1013200025E000BFFFF758FC001B022809D82868F9
:101330008001F7D51BE000BFFFF74EFC001B022821
:1013400002D90320BDE8F88F28688001F4D40EE0AC
:101350000128F7D06868226A00F48031914204D1F4
:10136000616A00F47010884201D00120EAE7002091
:10137000E8E70000001002400000424280044242C0
:101380000C000020007000407047704710B5044604
:1013900000680168C90717D04168C90714D04068C0
:1013A0004007204607D5FFF7F0FF21686FF00400E3
:1013B0004860042002E0FFF7E7FF01206074206826
:1013C000416821F00101416010BD000070B50400CA
:1013D00003D0607C002610B105E0012070BD2674AA
:1013E000204600F03DF802206074204600F014F919
:1013F000042550BB204600F0E7FC30BB2068416864
:1014000021F007014160A06820B11448016821F073
:10141000010101601148001F0168A26821F4607198
:10142000114301606068411C04D10120FFF778FC82
:1014300058B1401E2268C0F303419160216880B218
:10144000C860204600F0DAFC08B16574C5E7E673B1
:1014500001206073A0736074002070BD306C004088
:1014600008B500680D49884217D1FFF753FC0C48B6
:10147000C16941F00061C161C0690A4900F00060C2
:10148000009001200860002211460320FFF710FCA5
:10149000BDE808400320FFF7FDBB08BD0028004061
:1014A000001002403C0442422DE9F0410D46040088
:1014B0003BD0C5B3207C01283AD04FF0010884F816
:1014C000108002206074E87872B300F074FCE0735E
:1014D000687800F070FC6073A87800F06CFCA07372
:1014E000C2B2617BE07B00F0C2FC20732870204612
:1014F00000F0ADFC4FF46161B0FBF1F1002518295B
:101500002DD91822B1FBF2F1A1EB011101EB410140
:10151000C1EB011100EBC1163146204600F0E6FC9C
:101520000427C8B90BE000E004E00120BDE8F08129
:101530000220FBE7E07368786073A878CFE7204665
:1015400000F07EFC411C0AD0B04208D2064901449A
:10155000204600F0B7FC10B167742574E5E784F805
:10156000118025740020E1E7805101002DE9F04150
:101570000D46040024D01DB3207C012823D04FF059
:10158000010884F81080022060742878EAB100F025
:1015900012FC4FF4616100FB01F6687800F00BFC6F
:1015A000C0EB001006EB8006A87800F004FC3518AC
:1015B0002946204600F09AFC0026042710BB0FE0C5
:1015C0000120BDE8F0810220FBE74FF46161484350
:1015D0006978C1EB011100EB8100A9784518E7E7B4
:1015E0002068416821F005014160204600F028FC98
:1015F000411C0AD0A84208D206490144204600F006
:1016000061FC10B167742674DAE784F811802674DF
:101610000020D6E78051010070B504000AD0206890
:10162000416821F008014160FFF7D6FA05464FF402
:101630007A7608E0012070BDFFF7CEFA401BB04279
:1016400001D9032070BD206840680007F4D5002050
:1016500070BD10B5401EB0F1807F01D3012010BDD8
:101660004FF0E02460610F21601700F011FF0020AF
:10167000A06107202061002010BD704710B504460E
:101680000068406994F84110C0F3C010212911D1BD
:1016900080B12068143050E8001F21F0800140E83C
:1016A0000012002AF5D1A06B08B1FFF71FF8204601
:1016B00000F01AFD2068406994F84210C0F38010D1
:1016C000222911D180B12068143050E8001F21F088
:1016D000400140E80012002AF5D1E06B08B1FFF7A5
:1016E00005F8204600F0D9FC002010BD704700002E
:1016F000F8B5016804460868CA684B6910F00F0F16
:101700004FF0000559D003F0010602F490773743FB
:1017100065D0C10705D0D10503D5616C41F0010149
:101720006164410705D5D90703D0616C41F002011E
:101730006164810705D5D90703D0616C41F00401CC
:101740006164010707D502F02001314303D0616CC9
:1017500041F008016164616C00293AD0800604D52B
:10176000900602D5204600F0CDFC20684069616CEF
:10177000C0F38010090700D460B3204600F08DFC50
:1017800020684069400621D52068143050E8001FC9
:1017900021F0400140E80012002AF5D1E06BA8B129
:1017A0006D494163E06BFEF7C5FF002811D0E06B87
:1017B000416B01B0BDE8F040084783060FD59306A2
:1017C0000DD52046BDE8F84000F09CBC2046FFF750
:1017D0008DFFF8BD2046FFF789FF6564F8BD266BD5
:1017E0002023012E7CD1C6067AD5D60678D5086886
:1017F0004868009048694FF00206400640D5E16B0A
:10180000086840680004000CE8D0A28D8242E5D947
:10181000E085886920282DD020680C3050E8001F12
:1018200021F4807140E80012002AF5D120681430BC
:1018300050E8001F21F0010140E80012002AF5D114
:101840002068143050E8001F21F0400140E80012E9
:10185000002AF5D184F84230256320680C3050E826
:10186000001F21F0100140E80012002AF5D1E06BC2
:10187000FEF73CFF6663A08DE18D401A81B22AE03D
:10188000A08DE18D401A81B2E08D0028A6D00029FC
:10189000A4D022680C3252E8000F20F4907042E885
:1018A0000007002FF5D12068143050E8002F22F0F7
:1018B000010240E80027002FF5D184F8423025636B
:1018C00020680C3050E8002F22F0100240E800237E
:1018D000002BF5D166632046FFF7CFFEF8BDFFE78A
:1018E00005062BD5150629D594F841002128F5D1F8
:1018F000A068B0F5805F01D12069B0B1206A411CB9
:101900002162216800784860E08C401E0004000CD1
:10191000E084E3D12068C16821F08001C1602068C3
:10192000C16841F04001C160D8E7206A0088C0F377
:1019300008004860206A801C2062E5E74006CDD59B
:101940005006CBD5CA68204622F04002CA6084F80F
:10195000413000F032F9C1E79D1F000870B5040066
:1019600004D094F84100002510B106E0012070BDBC
:1019700084F84050204600F023F8242084F84100E9
:101980002068C16821F40051C160204600F01CFCB1
:101990002068016921F4904101612068416921F0CA
:1019A0002A0141612068C16841F40051C160656449
:1019B000202084F8410084F842006563002070BD57
:1019C0002DE9F04385B0002400940194029403941F
:1019D000064603684448DFF80CC1022203210515BE
:1019E00080274FF48058634539D1836943F480439D
:1019F0008361836903F480430493836943F00403A0
:101A000083618069DFF8E49000F004000490100224
:101A1000CDE90002039169464846FEF7E7FFCDE9AC
:101A20000054694648460294FEF7E0FF314D3048C5
:101A3000C5E90004C5E902472C616C61C5E90648A7
:101A40002846FEF76DFF08B1FEF74EFEF563002253
:101A5000114625206E62FFF72BF925203DE0DFF8C7
:101A600098C063453BD1C36943F48023C361C36914
:101A700003F480230493836943F00803836180693E
:101A800000F00800CDE90310CDE900521B4D694676
:101A90002846FEF7ABFFE814CDE900046946284666
:101AA0000294FEF7A3FF134D114844352838C5E9C9
:101AB0000004C5E902472C616C61C5E90648284667
:101AC000FEF72EFF08B1FEF70FFEF5630022114668
:101AD00027206E62FFF7ECF82720FFF7DBF805B050
:101AE000BDE8F083003801400010024000080140CA
:101AF00058000240C004002000480040000C014093
:101B000090F84230202B01D00220704721B11AB149
:101B10000023036300F0B4BB012070477047704797
:101B20002DE9F843044690F841001F4616460D463D
:101B3000202802D00220BDE8F8837DB176B10020D4
:101B40006064212084F84100FFF746F8A6848046AF
:101B5000E684A068B0F5805F02D003E00120EAE7E8
:101B6000206910B12E4600250EE000260CE08021F1
:101B7000204600F0CDFBA0B9AEB116F8010B2168EC
:101B80004860E08C401EE084E08C43464FF0000249
:101B900000970028EBD14FF04001204600F0B8FB41
:101BA00030B10320C7E735F8020BC0F30800E6E7C1
:101BB000202084F841000020BDE77047FEE70000C8
:101BC0000D4808B5416941F00101416140690022B9
:101BD00000F00100009011460D20FFF769F80D207C
:101BE000FFF758F8002211460F20FFF761F8BDE813
:101BF00008400F20FFF74EB800100240F0B585B046
:101C0000002424480094019402940394816941F0D3
:101C100010018161816901F010010491816941F035
:101C200020018161816901F020010491816941F005
:101C300008018161816901F008010491816941F025
:101C4000040181618069012200F00400124E5503F5
:101C5000049029463046FEF7B9FF104F0122C021FB
:101C60003846FEF7B3FF01200095CDE901040220BC
:101C7000039069463046FEF7B9FEC020009011205F
:101C8000CDE901040320039069463846FEF7AEFE15
:101C900005B0F0BD0010024000100140000C0140F2
:101CA0001CB5002419480194174900940160611E75
:101CB000C0E90114FFF78AFB08B1FEF715FD2020EB
:101CC0008DF8040010208DF805008DF806400122E3
:101CD00001A90E48FFF74AFC08B1FEF705FD0220F6
:101CE0008DF8000005208DF801008DF80200162007
:101CF0008DF80300012269460448FFF7D5FB002850
:101D000001D0FEF7F1FC1CBD0028004014000020AB
:101D100010B5114C0F480C2120604FF4E130606089
:101D20000020A060E060C4E90401A061E0612046F9
:101D3000FFF714FE08B1FEF7D7FC2068C16841F038
:101D40001001C160BDE810404FF400720349024821
:101D5000FFF7D6BE003801403004002028000020E4
:101D600010B5114C0F480C2120604FF4E130606039
:101D70000020A060E060C4E90401A061E0612046A9
:101D8000FFF7ECFD08B1FEF7AFFC2068C16841F039
:101D90001001C160BDE810404FF4007203490248D1
:101DA000FFF7AEBE00480040780400202C0200205F
:101DB000FEE7FEE77047010901EB810100F00F002B
:101DC00000EB4100C0B2704770B50446FEF704FF57
:101DD00005464FF47A7606E0FEF7FEFE401BB04261
:101DE00001D9032070BD206840688006F4D52068C2
:101DF000416841F010014160002070BD70B504469B
:101E00000068416821F010014160FEF7E5FE0546DB
:101E10004FF47A7607E000BFFEF7DEFE401BB042CB
:101E200001D9032070BD206840688006F4D50020E9
:101E300070BD00000148FFF7A9BA0000140000209F
:101E40000168086A496A89B241EA0040704700683F
:101E500081698AB2C1698BB2816989B28A4203D031
:101E6000C06961F31F40704743EA02407047F0B514
:101E70006424C1EBC1030927A500072603EB011366
:101E80000329B3FBF7F100F5FA60114401440AD2CB
:101E9000401EB0FBF4F201EB9001B0FBF5F0891AA3
:101EA0000844001D08E0B0FBF4F201EB9001B0FB28
:101EB000F5F0891A0844801CB0FBF6F106FB11000E
:101EC000C0B2F0BD70B50D4606460024FFF77CFF9A
:101ED00048B93168280C08623168A8B248623046B7
:101EE000FFF78CFF00B10124204670BD70B50D4690
:101EF00006460024FFF768FF48B93168280C88615E
:101F00003168A8B2C8613046FFF778FF00B10124FC
:101F1000204670BD7047FEF765BE70B594B02821AD
:101F20006846FEF708F914210AA8FEF704F900250F
:101F30000F950920012410950090119512954FF4EA
:101F4000803004940694CDE901050226CDE90760AE
:101F50004FF4E01009906846FFF786F808B172B6B2
:101F6000FEE70F20CDE90A064FF48060CDE90C5062
:101F700002210AA80E95FEF79BFF08B172B6FEE794
:101F80004FF40070CDE90F400FA8FEF71BFF0028AB
:101F900001D072B6FEE714B070BD704710B5406A4C
:101FA0000021C185C184FFF7A1FB10BD70B5446A53
:101FB0002068406994F84110C0F3C0100025212921
:101FC00004D118B1E584204600F08EF820684069FD
:101FD00094F84210C0F38010222904D118B1E5858D
:101FE000204600F05AF8606C40F010006064204613
:101FF000FFF77CFB70BD10B50146406A09680968AF
:102000004FF0000289062ED4C28501680C3151E8D8
:10201000003F23F4807341E80034002CF5D10168BF
:10202000143151E8003F23F0010341E80034002C53
:10203000F5D10168143151E8003F23F0400341E835
:102040000034002CF5D1202180F84210016B0129C9
:1020500009D101680C3151E8003F23F0100341E839
:102060000034002CF5D14263016B012902D0FFF747
:1020700055FD10BD818DFFF700FB10BD10B5406A06
:1020800001214163016B012902D0FFF748FD10BD1A
:10209000818D4908FFF7F1FA10BD01680C3151E854
:1020A000002F22F4907241E80023002BF5D1016843
:1020B000143151E8002F22F0010241E80023002BE7
:1020C000F5D1016B012909D101680C3151E8002FCC
:1020D00022F0100241E80023002BF5D1202180F8E6
:1020E000421000210163704701680C3151E8002F54
:1020F00022F0C00241E80023002BF5D1202180F816
:102100004110704708B590F84210222901D00220F2
:1021100008BD82684FF480539A4201D1016921B110
:10212000816A9A421BD04AB10AE00268816A526809
:10213000C2F308020A80816A891C08E0026972B150
:102140000268526802F07F020A70816A491C81624B
:10215000C18D491E0904090CC18503D01BE002682A
:102160005268F1E70168CA6822F02002CA6001687B
:10217000CA6822F48072CA6001684A6922F00102CA
:102180004A61202180F8421000214163026B012A3C
:1021900003D0FFF7C3FC002008BD016301680C31C8
:1021A00051E8002F22F0100241E80023002BF5D166
:1021B00001680A68D20602D50A6849680091818DD3
:1021C000FFF75BFAE7E7000070B5044600680169B5
:1021D000E26821F44051114301612169A06808437C
:1021E000616908432168CA6841F20C639A4302435B
:1021F000CA6020684169A26921F4407111434161BC
:102200001E492068884202D1FEF7F8FE01E0FEF781
:10221000E5FE00EBC00101EB001260686421800064
:10222000B2FBF0F3B3FBF1F36FF018067343B2FBAC
:10223000F0F5B2FBF0F605EB8305322303EB051551
:10224000B5FBF1F5B6FBF1F605F0F00505EB06156B
:10225000B2FBF0F6B2FBF0F0B0FBF1F06FF0180259
:10226000504306EB800003EB0010B0FBF1F0216857
:1022700000F00F002844886070BD00000038014065
:1022800038B58162044682850020134660642222AC
:1022900084F84220E56B1B4AAA62E56B1A4AEA629F
:1022A000E56B1A4A2A63E26B50630A462168E06BC9
:1022B000091DFEF763FB20680168406800902069F3
:1022C00048B120680C3050E8001F41F4807140E8AC
:1022D0000012002AF5D12068143050E8001F41F0A8
:1022E000010140E80012002AF5D12068143050E8BE
:1022F000001F41F0400140E80012002AF5D1002003
:1023000038BD0000F71F00087D200008AD1F000841
:102310002DE9F041984617460E460446069D27E0F3
:10232000681C25D02DB1FEF757FCA0EB0800A84291
:102330001ED920680C3050E8001F21F4D07140E80D
:102340000012002AF5D12068143050E8001F21F057
:10235000010140E80012002AF5D1202084F8410054
:1023600084F84200002084F840000320BDE8F0819A
:102370002068006836EA000004D00020B842CFD0C0
:102380000020F3E70120F9E708B51148FFF7B0F99D
:102390000F4800680168C1F3001181B1016840680D
:1023A00000900B48FFF76AF90A4800684068C0F5DA
:1023B00000710948A0F80212012180F80012BDE85E
:1023C00008404FF4007204490148FFF799BB000030
:1023D00030040020C00400202800002008B5114867
:1023E000FFF786F90F4800680168C1F3001181B159
:1023F0000168406800900B48FFF740F90A48006800
:102400004068C0F500710948A0F80212012180F867
:102410000012BDE808404FF4007204490148FFF77C
:102420006FBB000078040020040500202C0200206F
:1024300004E04260491C02681206FCD50A78002AB2
:10244000F7D17047FEE700000FB4054B10B503A9A4
:10245000044A029800F03CF810BC5DF814FB000040
:10246000DD260008100000200FB4084B10B504A9A9
:1024700002AA039800F02CF8044602A9002000F0FC
:1024800003F9204610BC5DF814FB00008926000803
:102490000907090E002804DB00F1E02080F8001491
:1024A000704700F00F0000F1E02080F8141D704725
:1024B00002E008C8121F08C1002AFAD1704770470D
:1024C000002001E001C1121F002AFBD1704700006B
:1024D0002DE9FF4F8BB09A460F460546002606E0D1
:1024E00025280BD052460D9990476D1C761C2878F4
:1024F0000028F5D10FB03046BDE8F08F0024A0468B
:102500000122604900E0044315F8013F203B02FA34
:1025100003F00842F7D128782E2817D115F8010FBB
:1025200044F004042A280ED06FF02F022878A0F17E
:10253000300109290AD808EB880102EB410100EBC0
:1025400001086D1CF2E757F8048B6D1C2878692888
:102550003ED006DC0028CDD063280BD0642804D1FF
:1025600036E0732810D075284BD052460D9990470D
:10257000761C85E017F8040B8DF8000000208DF81C
:102580000100E946012003E057F8049B4FF0FF30BB
:1025900061074FF0000401D40AE0641C44450DDAE1
:1025A0008442FADB19F804100029F6D106E0641C15
:1025B0008442FCDB19F804100029F8D1264404E019
:1025C00019F8010B52460D999047641EF8D257E056
:1025D00001CF4FF00A0B002802DA40422D2102E021
:1025E000210504D52B218DF82410012103E0E107FA
:1025F00005D02021F7E70DF1200908910CE000211A
:10260000F9E701CF4FF00A0BF9E75946FDF7B7FD9F
:1026100001F1300209F8012D0028F6D1ADEB0900D7
:1026200000F1200B600701D44FF00108D84502DD0E
:10263000A8EB0B0000E000208046002406E009A87B
:102640005246005D0D999047641C761C08988442A0
:10265000F5DB04E0302052460D999047761CB8F126
:102660000001A8F10108F5DC05E019F8010B52465C
:102670000D999047761CBBF10001ABF1010BF4DC26
:102680006D1C34E7092801000A68531C0B601070A8
:10269000704770B5054600244FF47A7603E0304663
:1026A00000F004F8641CAC42F9D370BD70B54FF073
:1026B000E0240022656964214843A169A3698B4233
:1026C000FCD002D2A1EB030102E0A5EB03063144EA
:1026D0000A4419468242F1D370BD000013B54FF68B
:1026E000FF73012269460248FFF71AFA00981CBDE1
:1026F00030040020FEF77EFAFFF70FFCFFF77EFAAA
:10270000FFF75EFAFFF7CCFAFFF702FBFFF728FBB3
:10271000502322A226A129A0FDF706FE2A4D2B4F09
:102720002B4E00244FF6FF784FF4007995F8000205
:10273000B0B12548FDF71CFD82B243462249254829
:10274000FFF7EEF9D7F8B40130B30020C7F8B401B1
:1027500085F80042A5F8024249461B48FDF7EBFC0C
:1027600096F800020028E1D086F80042A6F802425E
:10277000174919A0FFF768FE1CA11548FDF7E6FCF4
:1027800028B143460A221BA11248FFF7C9F949465E
:102790000F48FDF7D0FCC9E70120D7E76170692E2B
:1027A00073656E6976657273652E636F6D000000E8
:1027B00073623132333435360000000048554157DA
:1027C00045495F53313000002800002000002242BC
:1027D0002C0200207804002075736172745B335DF5
:1027E0005F72783A0A25730A00000000434C4F5389
:1027F0004544000041542B43575141500D0A0000FD
:10280000010202030405060708090A0B0C0D0E0F4E
:102810001010010202030405060708090A0B0C0D3B
:102820000E0F101000000000000000000102030461
:102830000607080900000000010203045C280008E4
:102840000000002014000000B024000870280008D8
:102850001400002034090000C0240008010000001A
:1028600010000000000000000024F4000000000040
:04000005080000ED02
:00000001FF
